:020000040001F9
:100000009817002001020100BD0D01001109010037
:10001000A50D0100A50D0100A50D010000000000C7
:10002000000000000000000000000000A50D01001D
:10003000A50D010000000000A50D010081110100C7
:10004000A50D0100A50D0100A50D0100A50D0100E4
:10005000A50D0100A50D0100A50D0100A50D0100D4
:10006000A50D0100A50D0100A50D0100A50D0100C4
:10007000A50D0100A50D0100A50D0100A50D0100B4
:10008000A50D0100A50D010033130100A50D010010
:10009000A50D0100A50D0100A50D0100A50D010094
:1000A000A50D0100A50D0100A50D0100A50D010084
:1000B000A50D0100A50D0100A50D0100A50D010074
:1000C000A50D0100A50D0100A50D0100A50D010064
:1000D000A50D0100A50D0100E9030100A50D01001A
:1000E000A50D0100A50D0100A50D0100A50D010044
:1000F000A50D0100A50D0100A50D0100A50D010034
:10010000A50D0100A50D0100A50D0100A50D010023
:10011000A50D0100A50D0100A50D0100A50D010013
:10012000A50D0100A50D0100A50D0100A50D010003
:10013000A50D0100A50D0100A50D0100A50D0100F3
:10014000A50D0100A50D0100A50D0100A50D0100E3
:100150000000000000000000A50D0100A50D010039
:10016000A50D0100A50D010000000000A50D010076
:1001700039090100A50D0100A50D0100A50D010023
:10018000A50D0100A50D0100A50D0100A50D0100A3
:10019000A90A0100A50D0100A50D0100A50D010092
:1001A000A50D0100A50D0100A50D0100A50D010083
:1001B000A50D0100A50D0100A50D0100A50D010073
:1001C000A50D0100A50D0100A50D0100A50D010063
:1001D000A50D0100A50D0100A50D0100A50D010053
:1001E000A50D0100A50D0100A50D0100A50D010043
:1001F000A50D0100A50D0100A50D0100A50D010033
:100200004EF68850CEF20000016841F470010160A2
:10021000AFF30080DFF80CD000F038F8004800475A
:10022000B114010098170020202A04DB203A21FA9B
:1002300002F00021704721FA02F3D040C2F12002FF
:10024000914008431946704740EA01039B0703D0D9
:1002500009E008C9121F08C0042AFAD203E011F805
:10026000013B00F8013B521EF9D2704730B50546FC
:100270000020034600E05B1C934205D2EC5CC85CA6
:10028000201A01D1002CF6D130BD0000064C074DDC
:1002900006E0E06840F0010394E807009847103456
:1002A000AC42F6D3FFF7BAFF3C1F01005C1F010010
:1002B00010B500EBC104627000F83110636010BD2E
:1002C0000C494878401CC0B248700B2810D2DFE8B7
:1002D00000F00F06090B0F0F0F0F0F0F0D0008692D
:1002E000C068004701F0C2BA01F00ABB00204870A4
:1002F00070470000DC0000200148007870470000D3
:10030000DC00002070B5104C0025256100F0DEFCFB
:100310002070E5702571012804D0022804D003283C
:1003200004D00AE0094802E0094800E0094806490B
:1003300020610C318268081F9047206908B9E57078
:100340002571207870BD0000DC000020F80000203E
:100350000C01002020010020704700002DE9FC4125
:1003600088460546012442F210761D483346642231
:100370000021009400F0CEFB194864230C30324673
:100380000921009400F0C6FB1548642318301A4672
:100390000A21009400F0BEFB0A24124E00230094B0
:1003A00030461A460121019401F024FA06F114079F
:1003B0003846062301220521009401F0DDF906F1FB
:1003C0003000002302220821009401F0D5F92E60AC
:1003D000C8F80070BDE8FC410B2001F0CDB800006A
:1003E00070010020280400202DE9F047DFF8F89084
:1003F00086B00021484600F095F84FF400413B4E8E
:1004000005464FF0010A884218D14C46484600F094
:1004100076F84FF080700021806D026A2046904788
:10042000B06030F0180006D086F800A0C00702D0F7
:10043000204600F05FF806B0BDE8F087681E1F2870
:10044000F9D82B4805EB850100EB8108A8F11404CD
:100450000027207802280ED029464C46484600F056
:100460004EF82946204600F06CF848F8107CB7702A
:1004700077703770DFE704F1090801236A4603212A
:100480004846CDF8108000F068F803982072009874
:10049000C0F3C31060740298000621D5144D676044
:1004A000243D607C2870227AAA706F604146281D26
:1004B000AF60FFF7C9FE284600F0EEF8687820B973
:1004C00028780C2801D002280AD1FFF715FF2978D7
:1004D000082340EAC11106480122103800F010F943
:1004E000377086F801A0A6E7000004405401002000
:1004F000180D0020016821F0010101607047B1F57D
:10050000004F0DD0026A1204FCD4426A42F0080285
:10051000426201F03F010162016A0904FCD47047A4
:100520004068704719B1012903D000207047006965
:100530007047D0F84011D0F8440189B241EA004038
:100540007047026A1204FCD4A022426200220263B5
:10055000426301F03F0101627047F0B5732403B1BB
:100560007B24C0F8844001F03F06C0F88060D0F8DA
:1005700080100904FBD4D0F888101FFA81FCD0F851
:100580008C108CB2D0F890108DB2D0F894108BB241
:10059000D0F89810002789B25FEAC15E97604FEAF1
:1005A000834E03D4BEF1000F03DB06E0BEF1000F63
:1005B00003DB4FF0400EC2F808E05FEA434E09D576
:1005C000C3F30C0E45EA0E451560956845F0040529
:1005D000956002E0C3F38A0515604D0403D5956864
:1005E00045F480759560CD0423D55B0407D5C4F32D
:1005F0000C034CEA03436FF06045536004E0C4F31E
:100600008A0340F2FF755360AB4202D1137A5B0656
:1006100003D4936843F008039360230403D59368DD
:1006200043F028039360630403D5936843F01803F1
:1006300093600B0503D5936843F0010393604B056A
:1006400003D5936843F0020393600B0422D501F0B5
:100650000F05D560117A49060ED400F19C030021E4
:10066000176907E010CB7C54491CA94202D2240A26
:100670007C54491CA942F5D30421C0F88410C0F869
:100680008060D0F880100904FBD4906840F08000AE
:100690009060F0BDD760F0BD0178074B03EBC1025D
:1006A000526822B113F831308B4200D1104700213B
:1006B0000170417001757047F404002070B586B078
:1006C0000DF1280C14469CE86400CDE9026104EBAE
:1006D000840100EB8100CDE90025A0F10B0104911C
:1006E00000F8143C4FF080706A46806D21468569A1
:1006F0000248A84706B0012070BD00000000044079
:100700002DE9FE43124E88460146B07814469946BC
:1007100010B10020BDE8FE830E4804EB840200EB1C
:100720008207A7F10B001A46FFF78EFD012547F857
:10073000105C0021CDF80080CDE901150B46224662
:1007400049460448FFF7BAFFB5700120E2E7000010
:1007500054010020180D002010B50024E1B2144B04
:1007600003221448FFF7A4FD641CA4B2FF2CF5D9A2
:10077000114B02220B210F48FFF79AFD0F4B01226C
:100780000C210C48FFF794FD0D4B01220F21094865
:10079000FFF78EFD0B4B022203210648FFF788FD71
:1007A0000122BDE81040084B02210248FFF780BD3E
:1007B0000F090100F40400204D0E0100010E01009C
:1007C000F10A0100DD110100ED0D010010B5044634
:1007D0000078134678B101280AD0022816D00328E1
:1007E00013D1A07A002810D10120A07264202081AA
:1007F000C8B201220DE0C8B20022194600F080FA0A
:10080000A07A002801D00020A07210BDC8B2034910
:100810004A78BDE81040194600F072BAD0000020B6
:1008200070B53649364800F075FB364D28603648BD
:1008300000F08AFC3448401C00F086FC3248801CE2
:1008400000F082FC3048C01C00F07EFC2E48001DE9
:1008500000F07AFC2C48401D00F076FC2A48801DF0
:1008600000F072FC2848C01D00F06EFC26480830DD
:1008700000F06AFC2448093000F066FC22480A3087
:1008800000F062FC20480B3000F05EFC1E480C308B
:1008900000F05AFC1C480D3000F056FC1A480E308F
:1008A00000F052FC286842F21071B0FBF1F04FF0FA
:1008B0008074A16B49698847606C81694FF0704012
:1008C00088472868A5018108284600F039FD284698
:1008D00000F038FD284600F027FD206A816E0720D1
:1008E0008847206A816E40F207408847BDE8704023
:1008F00003214FF0402000F0C9B80000000E270788
:10090000800600F16C010020000800F0704770477D
:10091000FEE7D307D0F8003401D00B4300E08B434F
:10092000C0F800349207D0F8202401D50A4300E033
:100930008A43C0F82024704710B54FF08070012121
:10094000006AD0F8CC200848904708480121C180AF
:10095000816849008160816841F00101816081887E
:10096000491C818010BD000000500640600100203D
:100970002DE9F04300244FF001084FF00309C2F3C2
:10098000411C08FA04F50D420ED0D0F8C47F650072
:1009900009FA05F6B743C0F8C47FD0F8C46F0CFA63
:1009A00005F52E43C0F8C46F641CE4B2082CE8D3EC
:1009B000D407D0F8004501D00C4300E08C43C0F8C8
:1009C00000459407D0F8044501D50C4300E08C4362
:1009D000C0F804455407D0F8084501D50C4300E0A1
:1009E0008C43C0F808451407D0F8184501D50C43CE
:1009F00000E08C43C0F81845D206D0F83C2501D55C
:100A00000A4300E08A43C0F83C25DA07D0F80C25F9
:100A100001D00A4300E08A43C0F80C259A07D0F8B9
:100A2000102501D50A4300E08A43C0F810255A0773
:100A3000D0F8142501D50A4300E08A43C0F81425F4
:100A40001A07D0F81C2501D50A4300E08A43C0F8F4
:100A50001C259A05D0F8442501D50A4300E08A43B5
:100A6000C0F84425D0F8402513F4407F01D00A4354
:100A700000E08A43C0F84025D0F8282523B18A43F6
:100A8000C0F82825BDE8F0830A43F9E730B50C46E5
:100A900005460222FFF73DFF21462846BDE83040CB
:100AA00008236622FFF764BF10B54FF08070012164
:100AB000006AD0F8CC200848904708480121C1803E
:100AC000816849008160816821F00101816081882D
:100AD000491C818010BD00000060064060010020BC
:100AE0000249002248884A807047000060010020C7
:100AF000704702004FF000004FF0010304D0012ABC
:100B000005D0022A02D1113103FA01F070470831F1
:100B1000FAE7000010B5029C4180012141708280FB
:100B2000C380047002480178491C017010BD0000A8
:100B3000D000002070B5094D0024287800280CD082
:100B4000074E07E004EB440006EB800000F0ECF8F1
:100B5000641CE4B228788442F4D370BDD000002035
:100B6000700100202DE9F0410024244F254604EBBC
:100B7000440007EB8006B07A50B1308910B1401EB6
:100B8000308105E000222146104600F0B9F8358199
:100B9000641CE4B2082CEAD3184F0024603704EB3D
:100BA000440007EB8006B07A50B1308910B1401E86
:100BB000308105E000222146012000F0A1F83581B6
:100BC000641CE4B2092CEAD30C4F0024CC3704EBAC
:100BD000440007EB8006B07A50B1308910B1401E56
:100BE000308105E000222146022000F089F835819D
:100BF000641CE4B2072CEAD3BDE8F081C4020020F3
:100C00002DE9F0412E4900244888B0F5FA6F02D250
:100C1000401C488005E000204880487880F00100B2
:100C20004870284D284E61002868C84000F0030134
:100C300004EB440006F8201006EB8000C17A8029FE
:100C400003D022460021FFF7C1FD641CE4B2082C4A
:100C5000E9D31C4E1C4FB51C002460372868610086
:100C6000C84000F0030104EB440007F8201007EB34
:100C70008000C17A802903D022460121FFF7A6FD1A
:100C8000641CE4B2092CE9D30F4D0024CC35761D49
:100C900061003068C84000F0030104EB440005F82F
:100CA000201005EB8000C17A802903D02246022162
:100CB000FFF78CFD641CE4B2072CE9D3BDE8F0819A
:100CC000D0000020F0000020C402002070B54FF0DA
:100CD000402500241021284600F02CFD00B90124F5
:100CE0000821284600F026FD00B90224022103480D
:100CF00000F020FD00B90324204670BD00700240C2
:100D00000B4638B1012809D002280BD111461846EC
:100D100000F058BC1146184600F038BC1146184681
:100D200000F042BC704700002DE9F04104464588C0
:100D3000007800271A4E00284FF00108E8B21AD0B8
:100D400000F0EAFC68B967812089A188884203D253
:100D5000401C2081BDE8F081318808FA05F001438C
:100D600007E027816089E188884213D2401C6081B6
:100D7000F0E73180EEE700F0CFFC0028F1D067818A
:100D80002089A1888842E3D3308808FA05F1084316
:100D90003080DFE7318808FA05F08143E9E7000099
:100DA000D4000020704700000348017881F0010161
:100DB0000170007800F0C8BC38010020FEE7000098
:100DC0000248012101700171704700003C010020C0
:100DD0000248002181600178017170473C010020C8
:100DE00001490020087070473C0100200248034977
:100DF000007808757047000034010020F40C0020D2
:100E000070B5FFF7D1FF0F480F4C0088C043207525
:100E1000000A6075FFF764FEA07500F0FFFD4FF457
:100E20008036751EB04200D328462076000A6076D0
:100E300000F0FAFDB04200D32846A076000AE07622
:100E400070BD0000D4000020F40C00200A4910B549
:100E500008484A68026089684160C07918B1BDE8F5
:100E60001040FFF7ADBFFFF7BBFFBDE81040FFF735
:100E7000AFBF0000F0000020F40C0020704700001D
:100E80002DE9FC410D460646012442F210771F4829
:100E90003B46642200210094FFF73CFE1B483B4682
:100EA0000C30642202210094FFF734FE17486423BB
:100EB00018301A4606210094FFF72CFE13486423CD
:100EC00024301A4609210094FFF724FE0A24104F0B
:100ED0000023009438461A460121019400F08AFC50
:100EE000009407F11400012300220421019400F072
:100EF00081FC009407F128042046062301220521E5
:100F000000F03AFC37602C60BDE8FC8170010020E5
:100F1000E40300202DE9F05FDFF808920F46D9F8CE
:100F20000010814A1140814A914272D0C0F3C2013F
:100F30007F4BC0F384184FF4004B022940D00629A0
:100F400043D0072946D010F0380F47D0002425465B
:100F500010F4605F58D0184600F0FAF90146484690
:100F6000C9F8C010D9F8601121F40001C9F8601166
:100F700050F8B01F6F4A114041F000410160002F4E
:100F80007DD0B4FBF7F606B1761E701CB4FBF0F70B
:100F9000384600F0DDF901464846C9F8C01050F85F
:100FA000B02F45EA8621114341F0004101604846D7
:100FB00050F8B01F21F4700101603846BDE8F09F81
:100FC0001C4600254FF01508C2E747F230544FF495
:100FD0000015BDE75C464FF48005B9E7A8F10902AA
:100FE000122A16D2544CD9F87C204FF04C7554F884
:100FF0002840CC4622F01C02B8F1070F01DB42F07A
:101000001002CCF87C20A3E710F0380F03D002299F
:1010100001D00020D2E7C0F3026A484800F098F9F6
:101020004E46C9F8C00056F8B00F4549084040F098
:1010300000403060404AA8F10900083A791E52F891
:101040002A201144B1FBF7F23168294346F8B41B5A
:101050000AEBCA0101EB4103374900EB40006C3158
:1010600001EBC30101EB80035B6846F87C39F36F49
:101070006FF0FF0707EB02221343F36700E04FE036
:1010800051F82000B16F01F400010843B067B06F60
:10109000C0F38921B06FC0F3090CF06FC0F30427CF
:1010A000F06F4A0900F01F00401CB4FBF0F05342FF
:1010B00001EB431100FB0CF3424303EB5212484394
:1010C00002EB90207F1CB0FBF7F04708384600F099
:1010D0003FF946F8280CB06FE83E000206D5D6F876
:1010E000B00040F08040C6F8B00005E0D6F86001DE
:1010F00040F40000C6F860015846D6F86811C907E8
:1011000002D1401E0028F8DC40B156F8B00F0D495E
:101110002843084340F00040306048E7002746E796
:10112000002635E700E00F400000FF7000000510CA
:101130000024F400FF0300EFDC1C010040787D0177
:1011400000FC0FE001000010C0F307230749C0B204
:10115000194401F07043C1F3130143EA411141EA1C
:10116000800040F0007001220260704700E60F40EE
:10117000024901480860FEE70400FA050CED00E0B2
:101180000149012008707047C80000201249002260
:101190008888401C80B288800B281AD2DFE800F0D3
:1011A0001918181818181818181806008A80C888EE
:1011B000401C80B2C8800B280AD2DFE800F0090684
:1011C0000909090909090909080000F055B9CA8087
:1011D00070478A8070470000C800002010B50A4C94
:1011E0000522211D09A0FFF741F830B10522211D7C
:1011F000BDE8104007A0FFF739B808490120086092
:10120000BDE81040FFF7B4BFF40C00204750563043
:1012100032000000475056534C00000000000020F0
:10122000704700002DE9FC410D460646012442F2BC
:1012300010773B483B46642200210094FFF76AFC8C
:1012400037483B460C30642201210094FFF762FCD2
:1012500033483B461830642202210094FFF75AFCC1
:101260002F48642324303A4606210094FFF752FCAD
:101270002B48642330301A4607210094FFF74AFCBC
:1012800027483B463C30642208210094FFF742FC8B
:1012900023483B464830642209210094FFF73AFC7A
:1012A0000A24204F0094384607230022012101948C
:1012B00000F0A0FA009407F114000123002202219B
:1012C000019400F097FA0423009407F1280000220B
:1012D0001946019400F08EFA009407F13C000523B2
:1012E00000224FF48071019400F084FA009407F119
:1012F0005000062300224FF40071019400F07AFAA6
:1013000006230122052107F16400009400F034FA5D
:1013100000F0C0FB07F1640037602860BDE8FC8185
:101320007001002074040020816841F00101816097
:1013300070474FF08070006C01684FF080400847A4
:1013400001607047816841F00201816070470000D0
:10135000074A002152F83130834203D302EBC10027
:1013600040687047491C0629F4D3002070470000EC
:10137000F81E010001B44FF47A71009801B048439F
:10138000AFF3008001B581B0122204E00092009812
:10139000411E0091FBD20198411E0191F6D20CBD75
:1013A00002E008C8121F08C1002AFAD1704770472E
:1013B000002001E001C1121F002AFBD1704700008C
:1013C000490802494FEA3000488070476001002018
:1013D00010B5FEF729FFC00700D0012010BD0000A6
:1013E000FEB54FF080740646606C81691C488847E2
:1013F000A06D1C4F416838468847A06D1A4A036C9F
:101400001A48016838469847A06D0E21826A38460E
:101410009047A06C4021826936209047A06CC1693A
:1014200036208847124D6860A06C016836208847D6
:10143000A06D816838468847A06D0021826B3846D0
:1014400090470A207F210096CDE901100223032254
:1014500008210848FFF732F90020A870EE70FEBDA1
:10146000003400F00000044040420F006C010020F6
:1014700054010020180D002001480078704700003A
:101480005401002030B50024234609E0C50701D0EF
:10149000641CE4B2490803F101034FEA3000DBB2F7
:1014A0009342F3D3E00701D0002030BD012030BDCE
:1014B00023494FF48030086072B6FFF74DF9FFF70B
:1014C000AFF900F08DF81F4CFEF71CFF607000288C
:1014D000FAD01D48002505803220FFF74BFF6078C9
:1014E000FFF77EFF62B6194E4FF0804730688108E3
:1014F0003846FFF725FF20780028F7D000F09AFA49
:10150000FFF718FBFFF77CFB6088401C80B260800F
:101510000B2812D2DFE800F0111106110911111188
:1015200011110C00FFF71EFB07E0FEF7C9FE04E0F7
:1015300000F0EAFA6580FFF729FE2570D6E7000083
:1015400008ED00E0C8000020D40000206C0100205D
:1015500030B50024234609E0C50701D0641CE4B27D
:10156000490803F101034FEA3000DBB29342F3D3A1
:10157000E00700D0012030BD0349C88000200122CF
:1015800088604A70C86070473C0100200A460828FD
:1015900007D2044B03EBC00153F83000496800F058
:1015A000DFB87047141C01000A46092807D2044B13
:1015B00003EBC00153F83000496800F0D1B8704720
:1015C000541C01000A46072807D2044B03EBC00154
:1015D00053F83000496800F0C3B870479C1C010004
:1015E0002DE9F0410024FFF791F9484D4FF0807745
:1015F00005EBC4063A6A317955F83400926B90478E
:10160000317955F8340009230122FFF7B1F9641C40
:10161000E4B20C2CECD33D4D002460353A6A05EB66
:10162000C40655F83400D26B31799047317955F8BA
:10163000340008237722FFF79BF9641CE4B2082CDE
:10164000ECD3324D0024A0353A6A05EBC40655F8B8
:101650003400D26B31799047317955F83400082342
:101660007722FFF785F9641CE4B2092CECD3274DEF
:101670000024E8353A6A05EBC40655F83400D26B0D
:1016800031799047317955F8340008237722FFF7F4
:101690006FF9641CE4B2072CECD3386A4FF0402495
:1016A0001021826B204690470A23012210212046F8
:1016B000FFF75EF9386A0821826B204690470A23BB
:1016C000012208212046FFF753F9386A104C022105
:1016D000826B204690470A23012202212046FFF711
:1016E00047F9386A0B4C8021C26B2046904709238A
:1016F000772280212046FFF73BF9B86B406880478E
:10170000B86BC068BDE8F04100470000B41B0100A1
:1017100000700240003006400C2801D300207047C2
:10172000034A02EBC00152F83000496800F002B8E9
:10173000B41B010010B54FF08072C9B2126AD26AB0
:101740009047C0B210BD0000044B08B1802200E0F9
:1017500000228021184600F003B800000030064047
:101760004FF080731B6A1B6812B1CAB2C9B201E0A4
:10177000C9B20022184700002DE9F0411546069A2B
:10178000C1800446E8B26070A3801F4662810026D3
:10179000A6703946FFF7ADF92081802107EB47009D
:1017A00025B1012D06D0022D0BD115E00D4AA26105
:1017B0000D4A03E00B4A921CA2610C4A02EB800026
:1017C000C17266820749E68126701439A6820879BB
:1017D000401C0871BDE8F081024A521DA261044A12
:1017E000ECE70000F0000020C402002024030020E9
:1017F000900300202DE9F0410446069F0181D0B2FC
:101800001E466070154663803146FFF772F920610D
:101810006781012020700020A081802106EB460016
:1018200025B1012D06D0022D0BD111E00B4A6260CB
:101830000B4A03E0094A921C62600A4A02EB8000EC
:10184000C17206491439C878401CC870BDE8F081DF
:10185000024A521D6260044AF0E70000F0000020D6
:10186000C402002024030020900300202DE9F04151
:10187000214E0024F078002835D0B068002832D0FE
:10188000F08800250F2802D2401CF08028E0F58067
:10189000B07880F00100B07022E0B26804EB8403FD
:1018A000164F02EB83003F88B0F808C0416817EA82
:1018B0000C0F1AD159B10F6841884FEA410C27FA31
:1018C0000CF707F00307022F0FD0012F11D002F8F9
:1018D0002350418840780022FFF712FA641CE4B2DA
:1018E000F0788442D9D3BDE8F08141884078B2785D
:1018F000F2E740780122EFE7DC000020D40000206E
:101900002DE9F047434F0025F86800287ED038794C
:1019100000287DD04FF00108DFF8FC90002672E02F
:10192000F868C5EBC50410F8241000EB840039B149
:101930004682818A4289914223D2491C818260E099
:101940008682418A4289914212D2491C4182807921
:10195000FFF7E2FEA0BBF86800EB84004289C18972
:10196000521F914202DA491CC1814AE0067448E0E4
:10197000818840780122FFF7C3F9F96801F82480D3
:101980003FE08079FFF7C8FE20B9F86800EB8400DB
:10199000C18961B1F86800EB84000674818A052969
:1019A00024D98189022916D2491C81811EE0818AAD
:1019B00005290ED9017C022903D2491C017408E0D3
:1019C0001FE08379B9F8001008FA03F21143A9F86F
:1019D000001086810AE0C18901B1C6818379B9F816
:1019E000001008FA03F08143A9F80010F8680022FB
:1019F00000EB840081884078FFF782F9F86800F8EE
:101A000024606D1CEDB23879854200E000E087D398
:101A1000BDE8F087DC000020D400002001480089E8
:101A200080B270473C0100200148008A80B27047B4
:101A30003C01002070B5164C0025607828B1A079D3
:101A4000FFF76AFEA07010B10DE0E56070BDE178AF
:101A500049B1217819B1A168491CA16000E0A560D5
:101A6000E168491CE160E07060694CF250318842E5
:101A700002D2401C606170BDE068C0EB00108000C5
:101A80000521B0FBF1F0C4E90350656170BD0000B1
:101A90003C01002070B54FF08074184D206A002280
:101AA0000121C36828469847206A0121D0F8D42034
:101AB00028469047A06C3021826964209047A06C32
:101AC000016864208847206A0D4D0022C368012107
:101AD00028469847206A0121D0F8D420284690470C
:101AE000A06C302182695C209047A06C01685C206A
:101AF000884704490120087070BD0000006006405E
:101B0000005006406001002070B5294C2078002864
:101B100048D0E088002845D0E088192843D900251E
:101B2000E580A0881A2803D0A088222818D037E0A2
:101B3000A06800222946FFF74BFC0646A0680C224D
:101B400040080021FFF79EFC864229D1A068192297
:101B50002946FFF73DFC0646A068400B0C2216E024
:101B6000A06800222946FFF733FC0646A068102231
:101B700040080021FFF786FC864211D1A06821228F
:101B80002946FFF725FC0646A068400C10220021DC
:101B9000FFF7DEFC864203D1A0682946FFF710FC60
:101BA000A560A58070BDE088401CE08070BD00008D
:101BB00060010020002006400200000000200640D6
:101BC000040000000020064008000000005006400D
:101BD00001000000006006400100000000600640B7
:101BE00002000000005006402000000000500640A7
:101BF0000200000000600640040000000060064093
:101C00001000000000500640040000000060064084
:101C10000800000000700240010000000040004089
:101C2000200000000050064010000000006002404C
:101C3000010000000050024002000000007000405F
:101C4000100000000020064001000000005002408B
:101C50000400000000300640040000000070024054
:101C6000080000000030064002000000001006409E
:101C70001000000000400640020000000040064046
:101C8000010000000020064010000000004002405B
:101C9000100000000010064020000000005000402E
:101CA00020000000005000401000000000400240F2
:101CB0000800000000400240020000000010064042
:101CC00004000000004002400100000000600240EB
:101CD0000200000000688909001C4E0E40420F00FF
:101CE00000201C0080841E0000802500999E360084
:101CF0000040380000093D0000803E0000004B001D
:101D0000404B4C0000204E00808D5B0000C05D0009
:101D10000080700000127A0000007D00809698001C
:101D2000001BB7000080BB00C0E8CE00647ADA0078
:101D30000024F4000000FA0080A81201002D3101F7
:101D400000366E0140787D01400000000000000078
:101D5000000100003E00080000000000000100003B
:101D6000A000000002000000000100003454010047
:101D700000000000000100002B70060000000000C1
:101D80000001000028000000000000000001000029
:101D900027000100000000000001000020000000FA
:101DA00000000000000100005000000002000000E0
:101DB000000100001AAC000000000000000100005B
:101DC00017940900000000000001000016980500AB
:101DD00000000000000100001400000000000000EE
:101DE0000001000013800800000000000001000056
:101DF000A00000000800000000010000100000002A
:101E000000000000000100002800000002000000A7
:101E1000000100004000000004000000000100007C
:101E20006000000000000000000100005D000C00E8
:101E30000000000000010000500000000000000051
:101E4000000100004E000200000000000001000040
:101E500041AC010000000000000100003C00000057
:101E600000000000000100003A80090000000000AE
:101E70000001000030000000000000000001000030
:101E80002800000000000000000100002700010001
:101E900000000000000100002360060000000000B8
:101EA00000010000216008000000000000010000A7
:101EB0001E00000000000000000100001DC0040022
:101EC00000000000000100005000000002000000BF
:101ED00000010000180000000000000000010000E8
:101EE000140000000000000000010000600000007D
:101EF00004000000000100000024F4003000300065
:101F0000005A62029100910000879303D200D20030
:101F100000B4C4041301130100E1F5055401540198
:101F2000000E270795019501534944450000000024
:101F3000434142005661756C740000005C1F010053
:101F4000C8000020A8000000A01301000420010028
:101F50007001002028160000B013010000000000EE
:101F60000000000000000000000000000000000071
:101F70000000000000000000000000000000000061
:101F8000000000000000000000000000010001004F
:101F9000281F0100810E01007D0E010000000000DD
:101FA00002000100301F01005D0301005903010020
:101FB0000000000003000100341F01002512010091
:101FC00021120100000000000000000000000000DD
:101FD0000000000001000000000000000000000000
:101FE00000000000000000000000000000000000F1
:101FF00000000000000000000000000000000000E1
:0420000000000000DC
:0400000500010215DF
:00000001FF
